{
  "contractName": "ERC20Basic",
  "abi": [
    {
      "inputs": [
        {
          "internalType": "uint256",
          "name": "initialSupply",
          "type": "uint256"
        }
      ],
      "stateMutability": "nonpayable",
      "type": "constructor"
    },
    {
      "anonymous": false,
      "inputs": [
        {
          "indexed": true,
          "internalType": "address",
          "name": "owner",
          "type": "address"
        },
        {
          "indexed": true,
          "internalType": "address",
          "name": "spender",
          "type": "address"
        },
        {
          "indexed": false,
          "internalType": "uint256",
          "name": "value",
          "type": "uint256"
        }
      ],
      "name": "Approval",
      "type": "event"
    },
    {
      "anonymous": false,
      "inputs": [
        {
          "indexed": true,
          "internalType": "address",
          "name": "from",
          "type": "address"
        },
        {
          "indexed": true,
          "internalType": "address",
          "name": "to",
          "type": "address"
        },
        {
          "indexed": false,
          "internalType": "uint256",
          "name": "amount",
          "type": "uint256"
        }
      ],
      "name": "Transfer",
      "type": "event"
    },
    {
      "inputs": [],
      "name": "decimals",
      "outputs": [
        {
          "internalType": "uint8",
          "name": "",
          "type": "uint8"
        }
      ],
      "stateMutability": "view",
      "type": "function"
    },
    {
      "inputs": [],
      "name": "name",
      "outputs": [
        {
          "internalType": "string",
          "name": "",
          "type": "string"
        }
      ],
      "stateMutability": "view",
      "type": "function"
    },
    {
      "inputs": [],
      "name": "totalSupply",
      "outputs": [
        {
          "internalType": "uint256",
          "name": "",
          "type": "uint256"
        }
      ],
      "stateMutability": "view",
      "type": "function"
    },
    {
      "inputs": [
        {
          "internalType": "uint256",
          "name": "newTokensAmount",
          "type": "uint256"
        }
      ],
      "name": "increaseTotalSupply",
      "outputs": [],
      "stateMutability": "nonpayable",
      "type": "function"
    },
    {
      "inputs": [
        {
          "internalType": "address",
          "name": "tokenOwner",
          "type": "address"
        }
      ],
      "name": "valanceOf",
      "outputs": [
        {
          "internalType": "uint256",
          "name": "",
          "type": "uint256"
        }
      ],
      "stateMutability": "view",
      "type": "function"
    },
    {
      "inputs": [
        {
          "internalType": "address",
          "name": "owner",
          "type": "address"
        },
        {
          "internalType": "address",
          "name": "delegate",
          "type": "address"
        }
      ],
      "name": "allowance",
      "outputs": [
        {
          "internalType": "uint256",
          "name": "",
          "type": "uint256"
        }
      ],
      "stateMutability": "view",
      "type": "function"
    },
    {
      "inputs": [
        {
          "internalType": "address",
          "name": "recipient",
          "type": "address"
        },
        {
          "internalType": "uint256",
          "name": "numTokens",
          "type": "uint256"
        }
      ],
      "name": "transfer",
      "outputs": [
        {
          "internalType": "bool",
          "name": "",
          "type": "bool"
        }
      ],
      "stateMutability": "nonpayable",
      "type": "function"
    },
    {
      "inputs": [
        {
          "internalType": "address",
          "name": "delegate",
          "type": "address"
        },
        {
          "internalType": "uint256",
          "name": "numTokens",
          "type": "uint256"
        }
      ],
      "name": "approve",
      "outputs": [
        {
          "internalType": "bool",
          "name": "",
          "type": "bool"
        }
      ],
      "stateMutability": "nonpayable",
      "type": "function"
    },
    {
      "inputs": [
        {
          "internalType": "address",
          "name": "owner",
          "type": "address"
        },
        {
          "internalType": "address",
          "name": "buyer",
          "type": "address"
        },
        {
          "internalType": "uint256",
          "name": "numTokens",
          "type": "uint256"
        }
      ],
      "name": "transferFrom",
      "outputs": [
        {
          "internalType": "bool",
          "name": "",
          "type": "bool"
        }
      ],
      "stateMutability": "nonpayable",
      "type": "function"
    }
  ],
  "bytecode": "0x608060405234801561001057600080fd5b50604051610fde380380610fde83398181016040528101906100329190610099565b806002819055506002546000803373ffffffffffffffffffffffffffffffffffffffff1673ffffffffffffffffffffffffffffffffffffffff16815260200190815260200160002081905550506100e3565b600081519050610093816100cc565b92915050565b6000602082840312156100ab57600080fd5b60006100b984828501610084565b91505092915050565b6000819050919050565b6100d5816100c2565b81146100e057600080fd5b50565b610eec806100f26000396000f3fe608060405234801561001057600080fd5b50600436106100935760003560e01c806323b872dd1161006657806323b872dd14610120578063313ce56714610150578063851985861461016e578063a9059cbb1461019e578063dd62ed3e146101ce57610093565b806306fdde0314610098578063095ea7b3146100b657806318160ddd146100e65780631d43cc9814610104575b600080fd5b6100a06101fe565b6040516100ad9190610d1b565b60405180910390f35b6100d060048036038101906100cb9190610b75565b610237565b6040516100dd9190610d00565b60405180910390f35b6100ee610329565b6040516100fb9190610d9d565b60405180910390f35b61011e60048036038101906101199190610bb1565b610333565b005b61013a60048036038101906101359190610b26565b610392565b6040516101479190610d00565b60405180910390f35b610158610778565b6040516101659190610db8565b60405180910390f35b61018860048036038101906101839190610ac1565b61077d565b6040516101959190610d9d565b60405180910390f35b6101b860048036038101906101b39190610b75565b6107c5565b6040516101c59190610d00565b60405180910390f35b6101e860048036038101906101e39190610aea565b6109dd565b6040516101f59190610d9d565b60405180910390f35b6040518060400160405280600781526020017f4552433230415a0000000000000000000000000000000000000000000000000081525081565b600081600160003373ffffffffffffffffffffffffffffffffffffffff1673ffffffffffffffffffffffffffffffffffffffff16815260200190815260200160002060008573ffffffffffffffffffffffffffffffffffffffff1673ffffffffffffffffffffffffffffffffffffffff168152602001908152602001600020819055508273ffffffffffffffffffffffffffffffffffffffff163373ffffffffffffffffffffffffffffffffffffffff167f8c5be1e5ebec7d5bd14f71427d1e84f3dd0314c0f7b2291e5b200ac8c7c3b925846040516103179190610d9d565b60405180910390a36001905092915050565b6000600254905090565b80600260008282540192505081905550806000803373ffffffffffffffffffffffffffffffffffffffff1673ffffffffffffffffffffffffffffffffffffffff1681526020019081526020016000206000828254019250508190555050565b6000816000808673ffffffffffffffffffffffffffffffffffffffff1673ffffffffffffffffffffffffffffffffffffffff1681526020019081526020016000205411610414576040517f08c379a000000000000000000000000000000000000000000000000000000000815260040161040b90610d3d565b60405180910390fd5b600160008573ffffffffffffffffffffffffffffffffffffffff1673ffffffffffffffffffffffffffffffffffffffff16815260200190815260200160002060003373ffffffffffffffffffffffffffffffffffffffff1673ffffffffffffffffffffffffffffffffffffffff168152602001908152602001600020548211156104d3576040517f08c379a00000000000000000000000000000000000000000000000000000000081526004016104ca90610d5d565b60405180910390fd5b610524826000808773ffffffffffffffffffffffffffffffffffffffff1673ffffffffffffffffffffffffffffffffffffffff16815260200190815260200160002054610a6490919063ffffffff16565b6000808673ffffffffffffffffffffffffffffffffffffffff1673ffffffffffffffffffffffffffffffffffffffff168152602001908152602001600020819055506105f582600160008773ffffffffffffffffffffffffffffffffffffffff1673ffffffffffffffffffffffffffffffffffffffff16815260200190815260200160002060003373ffffffffffffffffffffffffffffffffffffffff1673ffffffffffffffffffffffffffffffffffffffff16815260200190815260200160002054610a6490919063ffffffff16565b600160008673ffffffffffffffffffffffffffffffffffffffff1673ffffffffffffffffffffffffffffffffffffffff16815260200190815260200160002060003373ffffffffffffffffffffffffffffffffffffffff1673ffffffffffffffffffffffffffffffffffffffff168152602001908152602001600020819055506106c6826000808673ffffffffffffffffffffffffffffffffffffffff1673ffffffffffffffffffffffffffffffffffffffff16815260200190815260200160002054610a7b90919063ffffffff16565b6000808573ffffffffffffffffffffffffffffffffffffffff1673ffffffffffffffffffffffffffffffffffffffff168152602001908152602001600020819055508273ffffffffffffffffffffffffffffffffffffffff168473ffffffffffffffffffffffffffffffffffffffff167fddf252ad1be2c89b69c2b068fc378daa952ba7f163c4a11628f55a4df523b3ef846040516107659190610d9d565b60405180910390a3600190509392505050565b600281565b60008060008373ffffffffffffffffffffffffffffffffffffffff1673ffffffffffffffffffffffffffffffffffffffff168152602001908152602001600020549050919050565b60008060003373ffffffffffffffffffffffffffffffffffffffff1673ffffffffffffffffffffffffffffffffffffffff16815260200190815260200160002054821115610848576040517f08c379a000000000000000000000000000000000000000000000000000000000815260040161083f90610d7d565b60405180910390fd5b610899826000803373ffffffffffffffffffffffffffffffffffffffff1673ffffffffffffffffffffffffffffffffffffffff16815260200190815260200160002054610a6490919063ffffffff16565b6000803373ffffffffffffffffffffffffffffffffffffffff1673ffffffffffffffffffffffffffffffffffffffff1681526020019081526020016000208190555061092c826000808673ffffffffffffffffffffffffffffffffffffffff1673ffffffffffffffffffffffffffffffffffffffff16815260200190815260200160002054610a7b90919063ffffffff16565b6000808573ffffffffffffffffffffffffffffffffffffffff1673ffffffffffffffffffffffffffffffffffffffff168152602001908152602001600020819055508273ffffffffffffffffffffffffffffffffffffffff163373ffffffffffffffffffffffffffffffffffffffff167fddf252ad1be2c89b69c2b068fc378daa952ba7f163c4a11628f55a4df523b3ef846040516109cb9190610d9d565b60405180910390a36001905092915050565b6000600160008473ffffffffffffffffffffffffffffffffffffffff1673ffffffffffffffffffffffffffffffffffffffff16815260200190815260200160002060008373ffffffffffffffffffffffffffffffffffffffff1673ffffffffffffffffffffffffffffffffffffffff16815260200190815260200160002054905092915050565b600082821115610a7057fe5b818303905092915050565b600080828401905083811015610a8d57fe5b8091505092915050565b600081359050610aa681610e88565b92915050565b600081359050610abb81610e9f565b92915050565b600060208284031215610ad357600080fd5b6000610ae184828501610a97565b91505092915050565b60008060408385031215610afd57600080fd5b6000610b0b85828601610a97565b9250506020610b1c85828601610a97565b9150509250929050565b600080600060608486031215610b3b57600080fd5b6000610b4986828701610a97565b9350506020610b5a86828701610a97565b9250506040610b6b86828701610aac565b9150509250925092565b60008060408385031215610b8857600080fd5b6000610b9685828601610a97565b9250506020610ba785828601610aac565b9150509250929050565b600060208284031215610bc357600080fd5b6000610bd184828501610aac565b91505092915050565b610be381610e01565b82525050565b6000610bf482610dd3565b610bfe8185610dde565b9350610c0e818560208601610e44565b610c1781610e77565b840191505092915050565b6000610c2f601b83610dde565b91507f4e6f20646973706f6e6573206465206573612063616e746964616400000000006000830152602082019050919050565b6000610c6f601f83610dde565b91507f4e6f207469656e657320617369676e616461206573612063616e7469646164006000830152602082019050919050565b6000610caf601683610dde565b91507f4e6f207469656e6573206573612063616e7469646164000000000000000000006000830152602082019050919050565b610ceb81610e2d565b82525050565b610cfa81610e37565b82525050565b6000602082019050610d156000830184610bda565b92915050565b60006020820190508181036000830152610d358184610be9565b905092915050565b60006020820190508181036000830152610d5681610c22565b9050919050565b60006020820190508181036000830152610d7681610c62565b9050919050565b60006020820190508181036000830152610d9681610ca2565b9050919050565b6000602082019050610db26000830184610ce2565b92915050565b6000602082019050610dcd6000830184610cf1565b92915050565b600081519050919050565b600082825260208201905092915050565b6000610dfa82610e0d565b9050919050565b60008115159050919050565b600073ffffffffffffffffffffffffffffffffffffffff82169050919050565b6000819050919050565b600060ff82169050919050565b60005b83811015610e62578082015181840152602081019050610e47565b83811115610e71576000848401525b50505050565b6000601f19601f8301169050919050565b610e9181610def565b8114610e9c57600080fd5b50565b610ea881610e2d565b8114610eb357600080fd5b5056fea2646970667358221220b61e4e3e85c5ccba7beca4b889a60a506b6fd94d832dad9b2e6b91cd67e46c7b64736f6c63430007000033",
  "immutableReferences": {},
  "source": "// SPDX-License-Identifier: MIT\r\npragma solidity >=0.7.0;\r\npragma experimental ABIEncoderV2;\r\nimport \"./SafeMath.sol\";\r\n\r\n//Direcciones\r\n//Pedro --> 0x5B38Da6a701c568545dCfcB03FcB875f56beddC4\r\n//pablo --> 0xAb8483F64d9C6d1EcF9b849Ae677dD3315835cb2\r\n//René --> 0x4B20993Bc481177ec7E8f571ceCaE8A9e22C02db\r\n//Javier --> 0x78731D3Ca6b7E34aC0F824c42a7cC18A495cabaB  (PROPIETARIO)\r\n//Interface de nuestro token erc20\r\ninterface IERC20{\r\n    //Devuelve la cantidad de tokens en existencia\r\n    function totalSupply() external view returns(uint256);\r\n\r\n    //Devuelve la cantidad de tokens para una dirección como parametro\r\n    function valanceOf(address account) external view returns(uint256);\r\n\r\n    //devuelve el número de token que el spender(que tiene potestad de gastar) puede gastar  en nombre del propietario\r\n    function allowance(address owner, address spender) external view returns(uint256); \r\n\r\n    //Devuelve un valor booleano resultado de una operacion indicada\r\n    function transfer(address recipient, uint256 amount) external returns(bool);\r\n\r\n    //devuelve un valor booleano con el resultado de la operacion de gasto\r\n    function approve(address spender, uint256 amount) external returns(bool);\r\n\r\n    //devuelve un valor booleano con el resultado de la operacion de paso de una cantidad de tokens usando el metodo allowance()\r\n    function transferFrom(address sender, address recipient, uint256 amount) external returns(bool);    \r\n\r\n    //evento que se debe emitir cuando una cantidad de tokens pasen de un origen a un destino\r\n    event Transfer(address indexed from, address indexed to, uint256 amount);\r\n\r\n    //evento que se debe emitir cuando se establece una asignacion con el metodo allowance()\r\n    event Approval(address indexed owner, address indexed spender, uint256 value);\r\n}\r\n\r\n\r\n//implementacion de las funciones del token ERC20\r\ncontract ERC20Basic is IERC20{\r\n    string public constant name = \"ERC20AZ\";\r\n    uint8 public constant decimals = 2;\r\n\r\n    //event Transfer(address indexed from, address indexed to, uint256 tokens);\r\n    //event Approval(address indexed owner, address indexed spender, uint256 tokens);\r\n\r\n    using SafeMath for uint256;\r\n\r\n    mapping (address => uint) balances; //propietario de tokens\r\n    mapping (address => mapping (address => uint)) allowed; //propietario y a las direcciones que está cedido\r\n    uint256 totalSupply_; //Variable global de todos los tokens\r\n\r\n    //Origen de la criptomoneda (Token)\r\n    constructor (uint256 initialSupply){\r\n        totalSupply_ = initialSupply;\r\n        balances[msg.sender]=totalSupply_;\r\n    }\r\n\r\n    //Misma funcion de la interface, pero publica para acceder desde afuera y override para poder editarla\r\n    function totalSupply() public override view returns(uint256){\r\n        return totalSupply_;\r\n    }\r\n\r\n    function increaseTotalSupply(uint newTokensAmount) public {\r\n        totalSupply_ += newTokensAmount;\r\n        balances[msg.sender] += newTokensAmount;\r\n        //LOs tokens totales crecen y se los asigna al que los minó\r\n    }\r\n\r\n    function valanceOf(address tokenOwner) public override view returns(uint256){\r\n        return balances[tokenOwner];\r\n    }\r\n\r\n    function allowance(address owner, address delegate) public override view returns(uint256){\r\n        return allowed[owner][delegate];\r\n        //retorna cuanto tiene asignado un delegado para gastar\r\n    }\r\n\r\n    function transfer(address recipient, uint256 numTokens) public override returns(bool){\r\n        require (numTokens <= balances[msg.sender], \"No tienes esa cantidad\");\r\n        balances[msg.sender] = balances[msg.sender].sub(numTokens);\r\n        balances[recipient] = balances[recipient].add(numTokens);\r\n        emit Transfer(msg.sender, recipient, numTokens);\r\n        return true;\r\n    }\r\n\r\n    // (MSG.SENDER) ASIGNA 'N' TOKENS A UN DELEGADO \r\n    function approve(address delegate, uint256 numTokens) public override returns(bool){\r\n        allowed[msg.sender][delegate] = numTokens;\r\n        emit Approval(msg.sender, delegate, numTokens);\r\n        return true;\r\n    }\r\n\r\n    function transferFrom(address owner, address buyer, uint256 numTokens) public override returns(bool){\r\n        require(balances[owner] > numTokens, \"No dispones de esa cantidad\");\r\n        require(numTokens <= allowed[owner][msg.sender], \"No tienes asignada esa cantidad\");\r\n        balances[owner] = balances[owner].sub(numTokens);\r\n        allowed[owner][msg.sender] = allowed[owner][msg.sender].sub(numTokens);\r\n        balances[buyer] = balances[buyer].add(numTokens);\r\n        emit Transfer(owner, buyer, numTokens);\r\n        //Alguien compra tokens, pero por un intermediario DELEGATE (msg.sender) que puede vender los tokens que se le asigno en caso de tener los suficientes\r\n        return true;\r\n    }\r\n}",
  "sourcePath": "/home/rob/Plantillas/Dapps/voto/contracts/ERC20.sol",
  "compiler": {
    "name": "solc",
    "version": "0.7.0+commit.9e61f92b.Emscripten.clang"
  },
  "schemaVersion": "3.4.10",
  "updatedAt": "2023-03-15T00:54:48.521Z",
  "devdoc": {
    "kind": "dev",
    "methods": {},
    "version": 1
  },
  "userdoc": {
    "kind": "user",
    "methods": {},
    "version": 1
  }
}