{
  "contractName": "ERC20Basic",
  "abi": [
    {
      "inputs": [
        {
          "internalType": "uint256",
          "name": "initialSupply",
          "type": "uint256"
        }
      ],
      "stateMutability": "nonpayable",
      "type": "constructor"
    },
    {
      "anonymous": false,
      "inputs": [
        {
          "indexed": true,
          "internalType": "address",
          "name": "owner",
          "type": "address"
        },
        {
          "indexed": true,
          "internalType": "address",
          "name": "spender",
          "type": "address"
        },
        {
          "indexed": false,
          "internalType": "uint256",
          "name": "value",
          "type": "uint256"
        }
      ],
      "name": "Approval",
      "type": "event"
    },
    {
      "anonymous": false,
      "inputs": [
        {
          "indexed": true,
          "internalType": "address",
          "name": "from",
          "type": "address"
        },
        {
          "indexed": true,
          "internalType": "address",
          "name": "to",
          "type": "address"
        },
        {
          "indexed": false,
          "internalType": "uint256",
          "name": "amount",
          "type": "uint256"
        }
      ],
      "name": "Transfer",
      "type": "event"
    },
    {
      "inputs": [],
      "name": "decimals",
      "outputs": [
        {
          "internalType": "uint8",
          "name": "",
          "type": "uint8"
        }
      ],
      "stateMutability": "view",
      "type": "function"
    },
    {
      "inputs": [],
      "name": "name",
      "outputs": [
        {
          "internalType": "string",
          "name": "",
          "type": "string"
        }
      ],
      "stateMutability": "view",
      "type": "function"
    },
    {
      "inputs": [],
      "name": "totalSupply",
      "outputs": [
        {
          "internalType": "uint256",
          "name": "",
          "type": "uint256"
        }
      ],
      "stateMutability": "view",
      "type": "function"
    },
    {
      "inputs": [
        {
          "internalType": "uint256",
          "name": "newTokensAmount",
          "type": "uint256"
        }
      ],
      "name": "increaseTotalSupply",
      "outputs": [],
      "stateMutability": "nonpayable",
      "type": "function"
    },
    {
      "inputs": [
        {
          "internalType": "address",
          "name": "tokenOwner",
          "type": "address"
        }
      ],
      "name": "valanceOf",
      "outputs": [
        {
          "internalType": "uint256",
          "name": "",
          "type": "uint256"
        }
      ],
      "stateMutability": "view",
      "type": "function"
    },
    {
      "inputs": [
        {
          "internalType": "address",
          "name": "owner",
          "type": "address"
        },
        {
          "internalType": "address",
          "name": "delegate",
          "type": "address"
        }
      ],
      "name": "allowance",
      "outputs": [
        {
          "internalType": "uint256",
          "name": "",
          "type": "uint256"
        }
      ],
      "stateMutability": "view",
      "type": "function"
    },
    {
      "inputs": [
        {
          "internalType": "address",
          "name": "recipient",
          "type": "address"
        },
        {
          "internalType": "uint256",
          "name": "numTokens",
          "type": "uint256"
        }
      ],
      "name": "transfer",
      "outputs": [
        {
          "internalType": "bool",
          "name": "",
          "type": "bool"
        }
      ],
      "stateMutability": "nonpayable",
      "type": "function"
    },
    {
      "inputs": [
        {
          "internalType": "address",
          "name": "own",
          "type": "address"
        },
        {
          "internalType": "address",
          "name": "delegate",
          "type": "address"
        },
        {
          "internalType": "uint256",
          "name": "numTokens",
          "type": "uint256"
        }
      ],
      "name": "approve",
      "outputs": [
        {
          "internalType": "bool",
          "name": "",
          "type": "bool"
        }
      ],
      "stateMutability": "nonpayable",
      "type": "function"
    },
    {
      "inputs": [
        {
          "internalType": "address",
          "name": "owner",
          "type": "address"
        },
        {
          "internalType": "address",
          "name": "buyer",
          "type": "address"
        },
        {
          "internalType": "uint256",
          "name": "numTokens",
          "type": "uint256"
        }
      ],
      "name": "transferFrom",
      "outputs": [
        {
          "internalType": "bool",
          "name": "",
          "type": "bool"
        }
      ],
      "stateMutability": "nonpayable",
      "type": "function"
    }
  ],
  "bytecode": "0x608060405234801561001057600080fd5b50604051610fdf380380610fdf83398181016040528101906100329190610099565b806002819055506002546000803373ffffffffffffffffffffffffffffffffffffffff1673ffffffffffffffffffffffffffffffffffffffff16815260200190815260200160002081905550506100e3565b600081519050610093816100cc565b92915050565b6000602082840312156100ab57600080fd5b60006100b984828501610084565b91505092915050565b6000819050919050565b6100d5816100c2565b81146100e057600080fd5b50565b610eed806100f26000396000f3fe608060405234801561001057600080fd5b50600436106100935760003560e01c8063313ce56711610066578063313ce56714610120578063851985861461013e578063a9059cbb1461016e578063dd62ed3e1461019e578063e1f21c67146101ce57610093565b806306fdde031461009857806318160ddd146100b65780631d43cc98146100d457806323b872dd146100f0575b600080fd5b6100a06101fe565b6040516100ad9190610d1c565b60405180910390f35b6100be610237565b6040516100cb9190610d9e565b60405180910390f35b6100ee60048036038101906100e99190610bb2565b610241565b005b61010a60048036038101906101059190610b27565b6102a0565b6040516101179190610d01565b60405180910390f35b610128610686565b6040516101359190610db9565b60405180910390f35b61015860048036038101906101539190610ac2565b61068b565b6040516101659190610d9e565b60405180910390f35b61018860048036038101906101839190610b76565b6106d3565b6040516101959190610d01565b60405180910390f35b6101b860048036038101906101b39190610aeb565b6108eb565b6040516101c59190610d9e565b60405180910390f35b6101e860048036038101906101e39190610b27565b610972565b6040516101f59190610d01565b60405180910390f35b6040518060400160405280600381526020017f544b56000000000000000000000000000000000000000000000000000000000081525081565b6000600254905090565b80600260008282540192505081905550806000803373ffffffffffffffffffffffffffffffffffffffff1673ffffffffffffffffffffffffffffffffffffffff1681526020019081526020016000206000828254019250508190555050565b6000816000808673ffffffffffffffffffffffffffffffffffffffff1673ffffffffffffffffffffffffffffffffffffffff1681526020019081526020016000205411610322576040517f08c379a000000000000000000000000000000000000000000000000000000000815260040161031990610d3e565b60405180910390fd5b600160008573ffffffffffffffffffffffffffffffffffffffff1673ffffffffffffffffffffffffffffffffffffffff16815260200190815260200160002060003373ffffffffffffffffffffffffffffffffffffffff1673ffffffffffffffffffffffffffffffffffffffff168152602001908152602001600020548211156103e1576040517f08c379a00000000000000000000000000000000000000000000000000000000081526004016103d890610d5e565b60405180910390fd5b610432826000808773ffffffffffffffffffffffffffffffffffffffff1673ffffffffffffffffffffffffffffffffffffffff16815260200190815260200160002054610a6590919063ffffffff16565b6000808673ffffffffffffffffffffffffffffffffffffffff1673ffffffffffffffffffffffffffffffffffffffff1681526020019081526020016000208190555061050382600160008773ffffffffffffffffffffffffffffffffffffffff1673ffffffffffffffffffffffffffffffffffffffff16815260200190815260200160002060003373ffffffffffffffffffffffffffffffffffffffff1673ffffffffffffffffffffffffffffffffffffffff16815260200190815260200160002054610a6590919063ffffffff16565b600160008673ffffffffffffffffffffffffffffffffffffffff1673ffffffffffffffffffffffffffffffffffffffff16815260200190815260200160002060003373ffffffffffffffffffffffffffffffffffffffff1673ffffffffffffffffffffffffffffffffffffffff168152602001908152602001600020819055506105d4826000808673ffffffffffffffffffffffffffffffffffffffff1673ffffffffffffffffffffffffffffffffffffffff16815260200190815260200160002054610a7c90919063ffffffff16565b6000808573ffffffffffffffffffffffffffffffffffffffff1673ffffffffffffffffffffffffffffffffffffffff168152602001908152602001600020819055508273ffffffffffffffffffffffffffffffffffffffff168473ffffffffffffffffffffffffffffffffffffffff167fddf252ad1be2c89b69c2b068fc378daa952ba7f163c4a11628f55a4df523b3ef846040516106739190610d9e565b60405180910390a3600190509392505050565b600281565b60008060008373ffffffffffffffffffffffffffffffffffffffff1673ffffffffffffffffffffffffffffffffffffffff168152602001908152602001600020549050919050565b60008060003373ffffffffffffffffffffffffffffffffffffffff1673ffffffffffffffffffffffffffffffffffffffff16815260200190815260200160002054821115610756576040517f08c379a000000000000000000000000000000000000000000000000000000000815260040161074d90610d7e565b60405180910390fd5b6107a7826000803373ffffffffffffffffffffffffffffffffffffffff1673ffffffffffffffffffffffffffffffffffffffff16815260200190815260200160002054610a6590919063ffffffff16565b6000803373ffffffffffffffffffffffffffffffffffffffff1673ffffffffffffffffffffffffffffffffffffffff1681526020019081526020016000208190555061083a826000808673ffffffffffffffffffffffffffffffffffffffff1673ffffffffffffffffffffffffffffffffffffffff16815260200190815260200160002054610a7c90919063ffffffff16565b6000808573ffffffffffffffffffffffffffffffffffffffff1673ffffffffffffffffffffffffffffffffffffffff168152602001908152602001600020819055508273ffffffffffffffffffffffffffffffffffffffff163373ffffffffffffffffffffffffffffffffffffffff167fddf252ad1be2c89b69c2b068fc378daa952ba7f163c4a11628f55a4df523b3ef846040516108d99190610d9e565b60405180910390a36001905092915050565b6000600160008473ffffffffffffffffffffffffffffffffffffffff1673ffffffffffffffffffffffffffffffffffffffff16815260200190815260200160002060008373ffffffffffffffffffffffffffffffffffffffff1673ffffffffffffffffffffffffffffffffffffffff16815260200190815260200160002054905092915050565b600081600160008673ffffffffffffffffffffffffffffffffffffffff1673ffffffffffffffffffffffffffffffffffffffff16815260200190815260200160002060008573ffffffffffffffffffffffffffffffffffffffff1673ffffffffffffffffffffffffffffffffffffffff168152602001908152602001600020819055508273ffffffffffffffffffffffffffffffffffffffff168473ffffffffffffffffffffffffffffffffffffffff167f8c5be1e5ebec7d5bd14f71427d1e84f3dd0314c0f7b2291e5b200ac8c7c3b92584604051610a529190610d9e565b60405180910390a3600190509392505050565b600082821115610a7157fe5b818303905092915050565b600080828401905083811015610a8e57fe5b8091505092915050565b600081359050610aa781610e89565b92915050565b600081359050610abc81610ea0565b92915050565b600060208284031215610ad457600080fd5b6000610ae284828501610a98565b91505092915050565b60008060408385031215610afe57600080fd5b6000610b0c85828601610a98565b9250506020610b1d85828601610a98565b9150509250929050565b600080600060608486031215610b3c57600080fd5b6000610b4a86828701610a98565b9350506020610b5b86828701610a98565b9250506040610b6c86828701610aad565b9150509250925092565b60008060408385031215610b8957600080fd5b6000610b9785828601610a98565b9250506020610ba885828601610aad565b9150509250929050565b600060208284031215610bc457600080fd5b6000610bd284828501610aad565b91505092915050565b610be481610e02565b82525050565b6000610bf582610dd4565b610bff8185610ddf565b9350610c0f818560208601610e45565b610c1881610e78565b840191505092915050565b6000610c30601b83610ddf565b91507f4e6f20646973706f6e6573206465206573612063616e746964616400000000006000830152602082019050919050565b6000610c70601f83610ddf565b91507f4e6f207469656e657320617369676e616461206573612063616e7469646164006000830152602082019050919050565b6000610cb0601683610ddf565b91507f4e6f207469656e6573206573612063616e7469646164000000000000000000006000830152602082019050919050565b610cec81610e2e565b82525050565b610cfb81610e38565b82525050565b6000602082019050610d166000830184610bdb565b92915050565b60006020820190508181036000830152610d368184610bea565b905092915050565b60006020820190508181036000830152610d5781610c23565b9050919050565b60006020820190508181036000830152610d7781610c63565b9050919050565b60006020820190508181036000830152610d9781610ca3565b9050919050565b6000602082019050610db36000830184610ce3565b92915050565b6000602082019050610dce6000830184610cf2565b92915050565b600081519050919050565b600082825260208201905092915050565b6000610dfb82610e0e565b9050919050565b60008115159050919050565b600073ffffffffffffffffffffffffffffffffffffffff82169050919050565b6000819050919050565b600060ff82169050919050565b60005b83811015610e63578082015181840152602081019050610e48565b83811115610e72576000848401525b50505050565b6000601f19601f8301169050919050565b610e9281610df0565b8114610e9d57600080fd5b50565b610ea981610e2e565b8114610eb457600080fd5b5056fea2646970667358221220482ec765110e280dd9a59c6507c8ff5a3dc497eb56c9fb73fcc650f9eac39c9464736f6c63430007000033",
  "immutableReferences": {},
  "source": "// SPDX-License-Identifier: MIT\r\npragma solidity >=0.7.0;\r\npragma experimental ABIEncoderV2;\r\nimport \"./SafeMath.sol\";\r\n\r\n//Direcciones\r\n//Pedro --> 0x5B38Da6a701c568545dCfcB03FcB875f56beddC4\r\n//pablo --> 0xAb8483F64d9C6d1EcF9b849Ae677dD3315835cb2\r\n//René --> 0x4B20993Bc481177ec7E8f571ceCaE8A9e22C02db\r\n//Javier --> 0x78731D3Ca6b7E34aC0F824c42a7cC18A495cabaB  (PROPIETARIO)\r\n//Interface de nuestro token erc20\r\ninterface IERC20{\r\n    //Devuelve la cantidad de tokens en existencia\r\n    function totalSupply() external view returns(uint256);\r\n\r\n    //Devuelve la cantidad de tokens para una dirección como parametro\r\n    function valanceOf(address account) external view returns(uint256);\r\n\r\n    //devuelve el número de token que el spender(que tiene potestad de gastar) puede gastar  en nombre del propietario\r\n    function allowance(address owner, address spender) external view returns(uint256); \r\n\r\n    //Devuelve un valor booleano resultado de una operacion indicada\r\n    function transfer(address recipient, uint256 amount) external returns(bool);\r\n\r\n    //devuelve un valor booleano con el resultado de la operacion de gasto\r\n    function approve(address own, address spender, uint256 amount) external returns(bool);\r\n\r\n    //devuelve un valor booleano con el resultado de la operacion de paso de una cantidad de tokens usando el metodo allowance()\r\n    function transferFrom(address sender, address recipient, uint256 amount) external returns(bool);    \r\n\r\n    //evento que se debe emitir cuando una cantidad de tokens pasen de un origen a un destino\r\n    event Transfer(address indexed from, address indexed to, uint256 amount);\r\n\r\n    //evento que se debe emitir cuando se establece una asignacion con el metodo allowance()\r\n    event Approval(address indexed owner, address indexed spender, uint256 value);\r\n}\r\n\r\n\r\n//implementacion de las funciones del token ERC20\r\ncontract ERC20Basic is IERC20{\r\n    string public constant name = \"TKV\";\r\n    uint8 public constant decimals = 2;\r\n\r\n    //event Transfer(address indexed from, address indexed to, uint256 tokens);\r\n    //event Approval(address indexed owner, address indexed spender, uint256 tokens);\r\n\r\n    using SafeMath for uint256;\r\n\r\n    mapping (address => uint) balances; //propietario de tokens\r\n    mapping (address => mapping (address => uint)) allowed; //propietario y a las direcciones que está cedido\r\n    uint256 totalSupply_; //Variable global de todos los tokens\r\n\r\n    //Origen de la criptomoneda (Token)\r\n    constructor (uint256 initialSupply){\r\n        totalSupply_ = initialSupply;\r\n        balances[msg.sender]=totalSupply_;\r\n    }\r\n\r\n    //Misma funcion de la interface, pero publica para acceder desde afuera y override para poder editarla\r\n    function totalSupply() public override view returns(uint256){\r\n        return totalSupply_;\r\n    }\r\n\r\n    function increaseTotalSupply(uint newTokensAmount) public {\r\n        totalSupply_ += newTokensAmount;\r\n        balances[msg.sender] += newTokensAmount;\r\n        //LOs tokens totales crecen y se los asigna al que los minó\r\n    }\r\n\r\n    function valanceOf(address tokenOwner) public override view returns(uint256){\r\n        return balances[tokenOwner];\r\n    }\r\n\r\n    function allowance(address owner, address delegate) public override view returns(uint256){\r\n        return allowed[owner][delegate];\r\n        //retorna cuanto tiene asignado un delegado para gastar\r\n    }\r\n\r\n    function transfer(address recipient, uint256 numTokens) public override returns(bool){\r\n        require (numTokens <= balances[msg.sender], \"No tienes esa cantidad\");\r\n        balances[msg.sender] = balances[msg.sender].sub(numTokens);\r\n        balances[recipient] = balances[recipient].add(numTokens);\r\n        emit Transfer(msg.sender, recipient, numTokens);\r\n        return true;\r\n    }\r\n\r\n    // (MSG.SENDER) ASIGNA 'N' TOKENS A UN DELEGADO \r\n    function approve(address own, address delegate, uint256 numTokens) public override returns(bool){\r\n        allowed[own][delegate] = numTokens;\r\n        emit Approval(own, delegate, numTokens);\r\n        return true;\r\n    }\r\n\r\n    function transferFrom(address owner, address buyer, uint256 numTokens) public override returns(bool){\r\n        require(balances[owner] > numTokens, \"No dispones de esa cantidad\");\r\n        require(numTokens <= allowed[owner][msg.sender], \"No tienes asignada esa cantidad\");\r\n        balances[owner] = balances[owner].sub(numTokens);\r\n        allowed[owner][msg.sender] = allowed[owner][msg.sender].sub(numTokens);\r\n        balances[buyer] = balances[buyer].add(numTokens);\r\n        emit Transfer(owner, buyer, numTokens);\r\n        //Alguien compra tokens, pero por un intermediario DELEGATE (msg.sender) que puede vender los tokens que se le asigno en caso de tener los suficientes\r\n        return true;\r\n    }\r\n}",
  "sourcePath": "D:\\Cursos\\Dapps\\nuevo-voto-e\\contracts\\ERC20.sol",
  "compiler": {
    "name": "solc",
    "version": "0.7.0+commit.9e61f92b.Emscripten.clang"
  },
  "schemaVersion": "3.4.10",
  "updatedAt": "2023-04-28T14:53:11.255Z",
  "devdoc": {
    "kind": "dev",
    "methods": {},
    "version": 1
  },
  "userdoc": {
    "kind": "user",
    "methods": {},
    "version": 1
  }
}