{
  "contractName": "Votacion",
  "abi": [
    {
      "inputs": [],
      "stateMutability": "nonpayable",
      "type": "constructor"
    },
    {
      "anonymous": false,
      "inputs": [
        {
          "indexed": true,
          "internalType": "address",
          "name": "owner",
          "type": "address"
        },
        {
          "indexed": true,
          "internalType": "address",
          "name": "spender",
          "type": "address"
        },
        {
          "indexed": false,
          "internalType": "uint256",
          "name": "value",
          "type": "uint256"
        }
      ],
      "name": "Approval",
      "type": "event"
    },
    {
      "anonymous": false,
      "inputs": [
        {
          "indexed": true,
          "internalType": "address",
          "name": "from",
          "type": "address"
        },
        {
          "indexed": true,
          "internalType": "address",
          "name": "to",
          "type": "address"
        },
        {
          "indexed": false,
          "internalType": "uint256",
          "name": "amount",
          "type": "uint256"
        }
      ],
      "name": "Transfer",
      "type": "event"
    },
    {
      "inputs": [
        {
          "internalType": "address",
          "name": "owner",
          "type": "address"
        },
        {
          "internalType": "address",
          "name": "delegate",
          "type": "address"
        }
      ],
      "name": "allowance",
      "outputs": [
        {
          "internalType": "uint256",
          "name": "",
          "type": "uint256"
        }
      ],
      "stateMutability": "view",
      "type": "function",
      "constant": true
    },
    {
      "inputs": [
        {
          "internalType": "address",
          "name": "own",
          "type": "address"
        },
        {
          "internalType": "address",
          "name": "delegate",
          "type": "address"
        },
        {
          "internalType": "uint256",
          "name": "numTokens",
          "type": "uint256"
        }
      ],
      "name": "approve",
      "outputs": [
        {
          "internalType": "bool",
          "name": "",
          "type": "bool"
        }
      ],
      "stateMutability": "nonpayable",
      "type": "function"
    },
    {
      "inputs": [
        {
          "internalType": "uint256",
          "name": "",
          "type": "uint256"
        }
      ],
      "name": "candidatos",
      "outputs": [
        {
          "internalType": "address",
          "name": "",
          "type": "address"
        }
      ],
      "stateMutability": "view",
      "type": "function",
      "constant": true
    },
    {
      "inputs": [],
      "name": "decimals",
      "outputs": [
        {
          "internalType": "uint8",
          "name": "",
          "type": "uint8"
        }
      ],
      "stateMutability": "view",
      "type": "function",
      "constant": true
    },
    {
      "inputs": [
        {
          "internalType": "uint256",
          "name": "newTokensAmount",
          "type": "uint256"
        }
      ],
      "name": "increaseTotalSupply",
      "outputs": [],
      "stateMutability": "nonpayable",
      "type": "function"
    },
    {
      "inputs": [],
      "name": "name",
      "outputs": [
        {
          "internalType": "string",
          "name": "",
          "type": "string"
        }
      ],
      "stateMutability": "view",
      "type": "function",
      "constant": true
    },
    {
      "inputs": [],
      "name": "owner",
      "outputs": [
        {
          "internalType": "address",
          "name": "",
          "type": "address"
        }
      ],
      "stateMutability": "view",
      "type": "function",
      "constant": true
    },
    {
      "inputs": [],
      "name": "totalSupply",
      "outputs": [
        {
          "internalType": "uint256",
          "name": "",
          "type": "uint256"
        }
      ],
      "stateMutability": "view",
      "type": "function",
      "constant": true
    },
    {
      "inputs": [
        {
          "internalType": "address",
          "name": "recipient",
          "type": "address"
        },
        {
          "internalType": "uint256",
          "name": "numTokens",
          "type": "uint256"
        }
      ],
      "name": "transfer",
      "outputs": [
        {
          "internalType": "bool",
          "name": "",
          "type": "bool"
        }
      ],
      "stateMutability": "nonpayable",
      "type": "function"
    },
    {
      "inputs": [
        {
          "internalType": "address",
          "name": "owner",
          "type": "address"
        },
        {
          "internalType": "address",
          "name": "buyer",
          "type": "address"
        },
        {
          "internalType": "uint256",
          "name": "numTokens",
          "type": "uint256"
        }
      ],
      "name": "transferFrom",
      "outputs": [
        {
          "internalType": "bool",
          "name": "",
          "type": "bool"
        }
      ],
      "stateMutability": "nonpayable",
      "type": "function"
    },
    {
      "inputs": [
        {
          "internalType": "address",
          "name": "tokenOwner",
          "type": "address"
        }
      ],
      "name": "valanceOf",
      "outputs": [
        {
          "internalType": "uint256",
          "name": "",
          "type": "uint256"
        }
      ],
      "stateMutability": "view",
      "type": "function",
      "constant": true
    },
    {
      "inputs": [
        {
          "internalType": "uint256",
          "name": "",
          "type": "uint256"
        }
      ],
      "name": "votantes",
      "outputs": [
        {
          "internalType": "address",
          "name": "",
          "type": "address"
        }
      ],
      "stateMutability": "view",
      "type": "function",
      "constant": true
    },
    {
      "inputs": [],
      "name": "quienEnvio",
      "outputs": [
        {
          "internalType": "address",
          "name": "",
          "type": "address"
        }
      ],
      "stateMutability": "view",
      "type": "function",
      "constant": true
    },
    {
      "inputs": [],
      "name": "verCandidatos",
      "outputs": [
        {
          "internalType": "address[4]",
          "name": "",
          "type": "address[4]"
        }
      ],
      "stateMutability": "view",
      "type": "function",
      "constant": true
    },
    {
      "inputs": [
        {
          "internalType": "address",
          "name": "_votante",
          "type": "address"
        }
      ],
      "name": "asignarToken",
      "outputs": [
        {
          "internalType": "bool",
          "name": "",
          "type": "bool"
        }
      ],
      "stateMutability": "nonpayable",
      "type": "function"
    },
    {
      "inputs": [
        {
          "internalType": "address",
          "name": "_candidato",
          "type": "address"
        }
      ],
      "name": "votar",
      "outputs": [
        {
          "internalType": "bool",
          "name": "",
          "type": "bool"
        }
      ],
      "stateMutability": "nonpayable",
      "type": "function"
    },
    {
      "inputs": [
        {
          "internalType": "address",
          "name": "_votante",
          "type": "address"
        }
      ],
      "name": "verTokenAsignado",
      "outputs": [
        {
          "internalType": "uint256",
          "name": "",
          "type": "uint256"
        }
      ],
      "stateMutability": "view",
      "type": "function",
      "constant": true
    },
    {
      "inputs": [
        {
          "internalType": "address",
          "name": "_candidato",
          "type": "address"
        }
      ],
      "name": "verVotos",
      "outputs": [
        {
          "internalType": "uint256",
          "name": "",
          "type": "uint256"
        }
      ],
      "stateMutability": "view",
      "type": "function",
      "constant": true
    }
  ],
  "bytecode": "0x60806040523480156200001157600080fd5b50600a806002819055506002546000803373ffffffffffffffffffffffffffffffffffffffff1673ffffffffffffffffffffffffffffffffffffffff168152602001908152602001600020819055505033600360006101000a81548173ffffffffffffffffffffffffffffffffffffffff021916908373ffffffffffffffffffffffffffffffffffffffff160217905550620000b2620000c860201b60201c565b620000c26200025660201b60201c565b620005d2565b735b38da6a701c568545dcfcb03fcb875f56beddc4600e600060048110620000ec57fe5b0160006101000a81548173ffffffffffffffffffffffffffffffffffffffff021916908373ffffffffffffffffffffffffffffffffffffffff16021790555073ab8483f64d9c6d1ecf9b849ae677dd3315835cb2600e6001600481106200014f57fe5b0160006101000a81548173ffffffffffffffffffffffffffffffffffffffff021916908373ffffffffffffffffffffffffffffffffffffffff160217905550734b20993bc481177ec7e8f571cecae8a9e22c02db600e600260048110620001b257fe5b0160006101000a81548173ffffffffffffffffffffffffffffffffffffffff021916908373ffffffffffffffffffffffffffffffffffffffff1602179055507378731d3ca6b7e34ac0f824c42a7cc18a495cabab600e6003600481106200021557fe5b0160006101000a81548173ffffffffffffffffffffffffffffffffffffffff021916908373ffffffffffffffffffffffffffffffffffffffff160217905550565b735b38da6a701c568545dcfcb03fcb875f56beddc460046000600a81106200027a57fe5b0160006101000a81548173ffffffffffffffffffffffffffffffffffffffff021916908373ffffffffffffffffffffffffffffffffffffffff16021790555073ab8483f64d9c6d1ecf9b849ae677dd3315835cb260046001600a8110620002dd57fe5b0160006101000a81548173ffffffffffffffffffffffffffffffffffffffff021916908373ffffffffffffffffffffffffffffffffffffffff160217905550734b20993bc481177ec7e8f571cecae8a9e22c02db60046002600a81106200034057fe5b0160006101000a81548173ffffffffffffffffffffffffffffffffffffffff021916908373ffffffffffffffffffffffffffffffffffffffff1602179055507378731d3ca6b7e34ac0f824c42a7cc18a495cabab60046003600a8110620003a357fe5b0160006101000a81548173ffffffffffffffffffffffffffffffffffffffff021916908373ffffffffffffffffffffffffffffffffffffffff16021790555073ff027902fe23dd09f4c38fc534ae9e107eee7e42600480600a81106200040557fe5b0160006101000a81548173ffffffffffffffffffffffffffffffffffffffff021916908373ffffffffffffffffffffffffffffffffffffffff16021790555073fa4d70462809b43f529ffb1de9c077d094e6ab8a60046005600a81106200046857fe5b0160006101000a81548173ffffffffffffffffffffffffffffffffffffffff021916908373ffffffffffffffffffffffffffffffffffffffff160217905550732bcd78720142835143819af9b145a51f967efbb660046006600a8110620004cb57fe5b0160006101000a81548173ffffffffffffffffffffffffffffffffffffffff021916908373ffffffffffffffffffffffffffffffffffffffff16021790555073ef10f0930298674fed4cd2d0cfcfe9d398da1fe660046007600a81106200052e57fe5b0160006101000a81548173ffffffffffffffffffffffffffffffffffffffff021916908373ffffffffffffffffffffffffffffffffffffffff1602179055507380dc5fc8b93e46a53d0340df43f16ae9ff4ffced60046008600a81106200059157fe5b0160006101000a81548173ffffffffffffffffffffffffffffffffffffffff021916908373ffffffffffffffffffffffffffffffffffffffff160217905550565b61125e80620005e26000396000f3fe608060405234801561001057600080fd5b50600436106101165760003560e01c80639332d2e6116100a2578063caaa49a611610071578063caaa49a614610515578063dd62ed3e1461055b578063e1f21c67146105d3578063efbfff3d14610657578063f44d9315146106b157610116565b80639332d2e6146103cb5780639e31783514610425578063a9059cbb14610459578063c4607f20146104bd57610116565b80632e03f838116100e95780632e03f8381461026e578063313ce567146102c657806385198586146102e75780638da5cb5b1461033f5780638f023f851461037357610116565b806306fdde031461011b57806318160ddd1461019e5780631d43cc98146101bc57806323b872dd146101ea575b600080fd5b610123610709565b6040518080602001828103825283818151815260200191508051906020019080838360005b83811015610163578082015181840152602081019050610148565b50505050905090810190601f1680156101905780820380516001836020036101000a031916815260200191505b509250505060405180910390f35b6101a6610742565b6040518082815260200191505060405180910390f35b6101e8600480360360208110156101d257600080fd5b810190808035906020019092919050505061074c565b005b6102566004803603606081101561020057600080fd5b81019080803573ffffffffffffffffffffffffffffffffffffffff169060200190929190803573ffffffffffffffffffffffffffffffffffffffff169060200190929190803590602001909291905050506107ab565b60405180821515815260200191505060405180910390f35b61029a6004803603602081101561028457600080fd5b8101908080359060200190929190505050610bf7565b604051808273ffffffffffffffffffffffffffffffffffffffff16815260200191505060405180910390f35b6102ce610c2a565b604051808260ff16815260200191505060405180910390f35b610329600480360360208110156102fd57600080fd5b81019080803573ffffffffffffffffffffffffffffffffffffffff169060200190929190505050610c2f565b6040518082815260200191505060405180910390f35b610347610c77565b604051808273ffffffffffffffffffffffffffffffffffffffff16815260200191505060405180910390f35b61039f6004803603602081101561038957600080fd5b8101908080359060200190929190505050610c9d565b604051808273ffffffffffffffffffffffffffffffffffffffff16815260200191505060405180910390f35b61040d600480360360208110156103e157600080fd5b81019080803573ffffffffffffffffffffffffffffffffffffffff169060200190929190505050610cd0565b60405180821515815260200191505060405180910390f35b61042d610d07565b604051808273ffffffffffffffffffffffffffffffffffffffff16815260200191505060405180910390f35b6104a56004803603604081101561046f57600080fd5b81019080803573ffffffffffffffffffffffffffffffffffffffff16906020019092919080359060200190929190505050610d0f565b60405180821515815260200191505060405180910390f35b6104ff600480360360208110156104d357600080fd5b81019080803573ffffffffffffffffffffffffffffffffffffffff169060200190929190505050610f5a565b6040518082815260200191505060405180910390f35b61051d610f8f565b6040518082600460200280838360005b8381101561054857808201518184015260208101905061052d565b5050505090500191505060405180910390f35b6105bd6004803603604081101561057157600080fd5b81019080803573ffffffffffffffffffffffffffffffffffffffff169060200190929190803573ffffffffffffffffffffffffffffffffffffffff169060200190929190505050611010565b6040518082815260200191505060405180910390f35b61063f600480360360608110156105e957600080fd5b81019080803573ffffffffffffffffffffffffffffffffffffffff169060200190929190803573ffffffffffffffffffffffffffffffffffffffff16906020019092919080359060200190929190505050611097565b60405180821515815260200191505060405180910390f35b6106996004803603602081101561066d57600080fd5b81019080803573ffffffffffffffffffffffffffffffffffffffff16906020019092919050505061118a565b60405180821515815260200191505060405180910390f35b6106f3600480360360208110156106c757600080fd5b81019080803573ffffffffffffffffffffffffffffffffffffffff1690602001909291905050506111c1565b6040518082815260200191505060405180910390f35b6040518060400160405280600381526020017f544b56000000000000000000000000000000000000000000000000000000000081525081565b6000600254905090565b80600260008282540192505081905550806000803373ffffffffffffffffffffffffffffffffffffffff1673ffffffffffffffffffffffffffffffffffffffff1681526020019081526020016000206000828254019250508190555050565b6000816000808673ffffffffffffffffffffffffffffffffffffffff1673ffffffffffffffffffffffffffffffffffffffff1681526020019081526020016000205411610860576040517f08c379a000000000000000000000000000000000000000000000000000000000815260040180806020018281038252601b8152602001807f4e6f20646973706f6e6573206465206573612063616e7469646164000000000081525060200191505060405180910390fd5b600160008573ffffffffffffffffffffffffffffffffffffffff1673ffffffffffffffffffffffffffffffffffffffff16815260200190815260200160002060003373ffffffffffffffffffffffffffffffffffffffff1673ffffffffffffffffffffffffffffffffffffffff16815260200190815260200160002054821115610952576040517f08c379a000000000000000000000000000000000000000000000000000000000815260040180806020018281038252601f8152602001807f4e6f207469656e657320617369676e616461206573612063616e74696461640081525060200191505060405180910390fd5b6109a3826000808773ffffffffffffffffffffffffffffffffffffffff1673ffffffffffffffffffffffffffffffffffffffff168152602001908152602001600020546111d390919063ffffffff16565b6000808673ffffffffffffffffffffffffffffffffffffffff1673ffffffffffffffffffffffffffffffffffffffff16815260200190815260200160002081905550610a7482600160008773ffffffffffffffffffffffffffffffffffffffff1673ffffffffffffffffffffffffffffffffffffffff16815260200190815260200160002060003373ffffffffffffffffffffffffffffffffffffffff1673ffffffffffffffffffffffffffffffffffffffff168152602001908152602001600020546111d390919063ffffffff16565b600160008673ffffffffffffffffffffffffffffffffffffffff1673ffffffffffffffffffffffffffffffffffffffff16815260200190815260200160002060003373ffffffffffffffffffffffffffffffffffffffff1673ffffffffffffffffffffffffffffffffffffffff16815260200190815260200160002081905550610b45826000808673ffffffffffffffffffffffffffffffffffffffff1673ffffffffffffffffffffffffffffffffffffffff168152602001908152602001600020546111ea90919063ffffffff16565b6000808573ffffffffffffffffffffffffffffffffffffffff1673ffffffffffffffffffffffffffffffffffffffff168152602001908152602001600020819055508273ffffffffffffffffffffffffffffffffffffffff168473ffffffffffffffffffffffffffffffffffffffff167fddf252ad1be2c89b69c2b068fc378daa952ba7f163c4a11628f55a4df523b3ef846040518082815260200191505060405180910390a3600190509392505050565b600481600a8110610c0457fe5b016000915054906101000a900473ffffffffffffffffffffffffffffffffffffffff1681565b600281565b60008060008373ffffffffffffffffffffffffffffffffffffffff1673ffffffffffffffffffffffffffffffffffffffff168152602001908152602001600020549050919050565b600360009054906101000a900473ffffffffffffffffffffffffffffffffffffffff1681565b600e8160048110610caa57fe5b016000915054906101000a900473ffffffffffffffffffffffffffffffffffffffff1681565b6000610d00600360009054906101000a900473ffffffffffffffffffffffffffffffffffffffff168360016107ab565b9050919050565b600033905090565b60008060003373ffffffffffffffffffffffffffffffffffffffff1673ffffffffffffffffffffffffffffffffffffffff16815260200190815260200160002054821115610dc5576040517f08c379a00000000000000000000000000000000000000000000000000000000081526004018080602001828103825260168152602001807f4e6f207469656e6573206573612063616e74696461640000000000000000000081525060200191505060405180910390fd5b610e16826000803373ffffffffffffffffffffffffffffffffffffffff1673ffffffffffffffffffffffffffffffffffffffff168152602001908152602001600020546111d390919063ffffffff16565b6000803373ffffffffffffffffffffffffffffffffffffffff1673ffffffffffffffffffffffffffffffffffffffff16815260200190815260200160002081905550610ea9826000808673ffffffffffffffffffffffffffffffffffffffff1673ffffffffffffffffffffffffffffffffffffffff168152602001908152602001600020546111ea90919063ffffffff16565b6000808573ffffffffffffffffffffffffffffffffffffffff1673ffffffffffffffffffffffffffffffffffffffff168152602001908152602001600020819055508273ffffffffffffffffffffffffffffffffffffffff163373ffffffffffffffffffffffffffffffffffffffff167fddf252ad1be2c89b69c2b068fc378daa952ba7f163c4a11628f55a4df523b3ef846040518082815260200191505060405180910390a36001905092915050565b6000610f88600360009054906101000a900473ffffffffffffffffffffffffffffffffffffffff1683611010565b9050919050565b610f97611206565b600e600480602002604051908101604052809291908260048015611006576020028201915b8160009054906101000a900473ffffffffffffffffffffffffffffffffffffffff1673ffffffffffffffffffffffffffffffffffffffff1681526020019060010190808311610fbc575b5050505050905090565b6000600160008473ffffffffffffffffffffffffffffffffffffffff1673ffffffffffffffffffffffffffffffffffffffff16815260200190815260200160002060008373ffffffffffffffffffffffffffffffffffffffff1673ffffffffffffffffffffffffffffffffffffffff16815260200190815260200160002054905092915050565b600081600160008673ffffffffffffffffffffffffffffffffffffffff1673ffffffffffffffffffffffffffffffffffffffff16815260200190815260200160002060008573ffffffffffffffffffffffffffffffffffffffff1673ffffffffffffffffffffffffffffffffffffffff168152602001908152602001600020819055508273ffffffffffffffffffffffffffffffffffffffff168473ffffffffffffffffffffffffffffffffffffffff167f8c5be1e5ebec7d5bd14f71427d1e84f3dd0314c0f7b2291e5b200ac8c7c3b925846040518082815260200191505060405180910390a3600190509392505050565b60006111ba600360009054906101000a900473ffffffffffffffffffffffffffffffffffffffff16836001611097565b9050919050565b60006111cc82610c2f565b9050919050565b6000828211156111df57fe5b818303905092915050565b6000808284019050838110156111fc57fe5b8091505092915050565b604051806080016040528060049060208202803683378082019150509050509056fea2646970667358221220284747e5a5a40a2561f40e1752713f459ca694d1ed5fd17bd32eb8031fe24bd064736f6c63430007000033",
  "immutableReferences": {},
  "source": "// SPDX-License-Identifier: MIT\r\npragma solidity >=0.7.0;\r\nimport \"./ERC20.sol\";\r\ncontract Votacion is ERC20Basic{\r\n    address public owner;\r\n    // string title;\r\n\r\n    //votantes direcciones\r\n    address [10] public votantes;\r\n    \r\n    // candidatos direcciones Cuatro candidatos\r\n    address[4] public candidatos;\r\n\r\n    constructor() ERC20Basic(10){\r\n        owner = msg.sender;\r\n        recibirCandidatos();\r\n        recibirVotantes();\r\n    }\r\n\r\n    function quienEnvio() public view returns(address){\r\n      return msg.sender;\r\n    }\r\n    function verCandidatos() public view returns(address [4] memory){\r\n        return candidatos;\r\n    }\r\n\r\n    function asignarToken(address _votante) public returns(bool){\r\n        //MSG.SENDER asigna tokens a los votantes (OWNER)\r\n        // Podemos restringir que solo variable de estado OWNER sea el que asigne votos\r\n        return approve(owner, _votante, 1);\r\n    }\r\n\r\n    function votar(address _candidato) public returns(bool){\r\n        //MSG.SENDER envia su token a _candidato\r\n        return transferFrom(owner, _candidato, 1);\r\n    }\r\n\r\n    function verTokenAsignado(address _votante) public view returns(uint256){\r\n        //variable de estado OWNER es propietario quien asigna votos\r\n        return allowance(owner, _votante);\r\n    }\r\n\r\n    function verVotos(address _candidato) public view returns(uint256){\r\n        return valanceOf(_candidato);\r\n    }\r\n\r\n    function recibirCandidatos() private {\r\n        candidatos[0] = address(0x5B38Da6a701c568545dCfcB03FcB875f56beddC4);\r\n        candidatos[1] = address(0xAb8483F64d9C6d1EcF9b849Ae677dD3315835cb2);\r\n        candidatos[2] = address(0x4B20993Bc481177ec7E8f571ceCaE8A9e22C02db);\r\n        candidatos[3] = address(0x78731D3Ca6b7E34aC0F824c42a7cC18A495cabaB);\r\n    }\r\n    function recibirVotantes() private {\r\n        votantes[0] = address(0x5B38Da6a701c568545dCfcB03FcB875f56beddC4);\r\n        votantes[1] = address(0xAb8483F64d9C6d1EcF9b849Ae677dD3315835cb2);\r\n        votantes[2] = address(0x4B20993Bc481177ec7E8f571ceCaE8A9e22C02db);\r\n        votantes[3] = address(0x78731D3Ca6b7E34aC0F824c42a7cC18A495cabaB);\r\n        votantes[4] = address(0xFf027902FE23dD09f4C38FC534aE9e107eEe7E42);\r\n        votantes[5] = address(0xFA4d70462809B43F529FFb1DE9C077D094e6ab8a);\r\n        votantes[6] = address(0x2bcD78720142835143819AF9b145A51F967eFbB6);\r\n        votantes[7] = address(0xEF10f0930298674FeD4cD2d0CFcFe9D398Da1fe6);\r\n        votantes[8] = address(0x80dC5fC8b93E46A53d0340DF43F16AE9Ff4FfCED);\r\n    }\r\n}",
  "sourcePath": "/home/rob/Plantillas/Dapps/voto/contracts/Votacion.sol",
  "compiler": {
    "name": "solc",
    "version": "0.7.0+commit.9e61f92b.Emscripten.clang"
  },
  "schemaVersion": "3.4.10",
  "updatedAt": "2023-03-21T00:26:07.279Z",
  "networkType": "ethereum",
  "devdoc": {
    "kind": "dev",
    "methods": {},
    "version": 1
  },
  "userdoc": {
    "kind": "user",
    "methods": {},
    "version": 1
  }
}